:020000040000FA
:100000000C9457000C9474000C9474000C947400BD
:100010000C9474000C9474000C946A090C94740091
:100020000C9474000C9474000C9474000C94740080
:100030000C9474000C9474000C9474000C94740070
:100040000C9474000C9474000C9474000C94740060
:100050000C94FB080C9474000C9474000C947400C1
:100060000C9420090C9489080C94010A0C94DB0967
:100070000C9474000C94B1080C9474000C947400EB
:100080000C9474000C9474000C9445090C94D608DC
:100090000C9474000C94B5090C948F090C947400A2
:1000A0006364696E6F70737578585B00270A11245A
:1000B0001FBECFEFCDBFDFE3DEBF2BE2A0E0B8E293
:1000C00001C01D92AF32B207E1F710E0C7E5D0E002
:1000D00004C02197FE010E945711C635D107C9F708
:1000E0000E94C60A0C94BE140C940000282F30E025
:1000F000F901E050F64940814F3F09F450C0893280
:1001000058F4F901EB57F649E081EE2329F0E1308C
:1001100099F010F0E63020F1F901E952F649E0815A
:10012000A0E2EA9FF0011124FC5F8081842321F189
:10013000611120C046830895F901E255F6495081C6
:10014000533008F05F5F7091010A81E090E001C0D8
:10015000880F5A95EAF7809587238093010ADCCFB0
:1001600080E1E89FF0011124E05AF54F81818F7EF4
:100170008183D2CF4583089522553649D9018C9188
:10018000309771F08F3F61F07096E80FF11D9FB7C7
:10019000F8948081611107C0877F80839FBF089595
:1001A000F0E0E0E0F4CF8860F8CFCF93DF9390E009
:1001B000FC01E050F64920812F3F61F0FC01E9523B
:1001C000F649E08130E2E39FF0011124FC5F6130E9
:1001D00021F42183DF91CF91089582559649EC0156
:1001E000A881AF3F69F0CF014096A80FB92FB11D8C
:1001F0009FB7F89422838C9188608C939FBFEACF3D
:10020000B0E0A0E0F5CF8FB7F89420915F2930914E
:1002100060294091612950916229E091AA0AF091E8
:10022000AB0A9091A60A90FF08C02F5F3F4F4F4F37
:100230005F4FE091AA0AF091AB0A8FBFA8EEB3E03E
:100240000E94C31024E0F695E7952A95E1F76E0F1A
:100250007F1F811D911D08958F929F92AF92BF9233
:10026000CF92DF92EF92FF924B015C010E9403015B
:100270006B017C01A8EEB3E0A50194010E94C310BC
:10028000C60ED71EE81EF91EC616D706E806F906E2
:1002900018F40E940301F8CF0E9403016C157D053C
:1002A0008E059F05C8F3FF90EF90DF90CF90BF9031
:1002B000AF909F908F9008952FB7F89460915F2929
:1002C0007091602980916129909162292FBF0895D2
:1002D0000F931F930E945C01AB01BC018091002829
:1002E00090910128A0910228B09103288A019B01D6
:1002F000081B190B2A0B3B0BD901C801C297A1059A
:10030000B105F0F08091842890918528A0918628ED
:10031000B09187280196A11DB11D809384289093E8
:100320008528A0938628B09387284093002850936F
:100330000128609302287093032881E08093542958
:100340001F910F910895AF92BF92CF92DF92EF92DB
:10035000FF920F931F93CF93DF936C017B018B016F
:10036000040F151FEB015E01AE18BF08C017D107BF
:1003700059F06991D601ED91FC910190F081E02D49
:10038000C6010995892B79F7C501DF91CF911F919E
:100390000F91FF90EF90DF90CF90BF90AF900895B6
:1003A000EF92FF920F931F93CF93DF9390E2899F79
:1003B000E0011124DC5FE984082F000F000F000F1B
:1003C000FF24F39410E08E2D8F2179F0E02FE10FC0
:1003D000F0E0EE0FFF1FEC5FF74D80819181892BDC
:1003E00021F00190F081E02D09951F5FFF0C18307E
:1003F00051F7E986DF91CF911F910F91FF90EF9018
:100400000895FC01A485B58511968C91119781FD05
:100410000FC09C9186898F5F8F732789281749F0B9
:10042000A689AE0FBF2FB11D5D969C93868B089554
:100430008C910895FC01508D418D252F30E0842F43
:1004400090E0821B930B541710F0CF9608950197FC
:100450000895FC0196898789981761F0A789AE0FE6
:10046000BF2FB11D5D968C9197899F5F9F73978B6E
:1004700090E008958FEF9FEF0895FC01968987899A
:10048000981731F08789E80FF11D858D90E0089568
:100490008FEF9FEF0895FC0196892789892F90E0BF
:1004A000805C9F4F821B91098F739927089580E08C
:1004B0009AE20E944B0221E0892B09F420E0822F6E
:1004C000089583E699E20E944B0221E0892B09F40A
:1004D00020E0822F0895CF93DF93EC01E881F9812A
:1004E0000680F781E02D0995EC85FD8586818F7367
:1004F0008683EC85FD8585818F7585838F898E8BBD
:100500001D8ADF91CF910895AF92BF92CF92DF9273
:10051000EF92FF920F931F93CF93DF93EC016A0149
:100520007B01A22E8D89882339F0E881F981068824
:10053000F789E02DCE0109950C8910E0BFB6F8943B
:1005400060E070E281EA97E0A70196010E940E1137
:1005500069017A018FEFC81AD80AE80AF80AF694F6
:10056000E794D794C794EC85FD8586818D7F86833B
:10057000EC85FD85868186831D8AA09123110A2E34
:10058000000CBB0BA70196010E944F1120E034E044
:1005900040E050E00E943011EC85FD85C20ED31E74
:1005A000E41EF51EC086D186EC85FD85A782EC850C
:1005B000FD858681806C8683EC85FD8585818068DC
:1005C00085839091E2058B89809589237801EE0CD3
:1005D000FF1CF701E00FF11FEC0FFD1F9089892B25
:1005E0008093E2058685893218F462E00E94D50086
:1005F000F701E00FF11FEC0FFD1F8785893218F41A
:1006000061E00E9476000E0D1F1DC00FD11F8F8567
:10061000893218F461E00E94D500BFBEDF91CF910E
:100620001F910F91FF90EF90DF90CF90BF90AF9010
:100630000895FC01613019F4648B81E00895148AF7
:100640006623D9F380E00895DC0154961C925497F8
:1006500054968C9154978230A0F4282F30E0F90101
:10066000EE0FFF1FE20FF31FEA0FFB1F9785961394
:1006700003C09685941749F08F5F54968C935497D6
:10068000E7CF54961C9280E0089581E00895CF93BF
:10069000DF93FC01908D818DC485D585981306C0AC
:1006A0008D818F7D8D83DF91CF910895A18DAE0FC8
:1006B000BF2FB11DA35ABF4F2C91818D90E00196A1
:1006C0008F739927818F80E48C83A485B5851296DA
:1006D0002C93908D818D9813E6CFA485B5851596C2
:1006E0008C9115978F7D15968C93838D8823D9F2E5
:1006F000848D80931301138ED6CFDC011C96ED916F
:10070000FC910FB607FE03C0258125FD04C024819E
:1007100025FD0C9447030895EF92FF920F931F93CA
:10072000CF93DF93EC0181E08D8B988D898D9813A9
:100730001CC0AC85BD8514968C91149785FF15C09F
:1007400012966C93AC85BD8580E414968C93EC85F1
:10075000FD8585818F7D858381E090E0DF91CF915C
:100760001F910F91FF90EF9008958091110180FFEC
:1007700008C0809113018C8F8A8D8093130181E0D2
:100780008B8FF62E088D10E00F5F1F4F0F73112710
:10079000E02E898D8E1104C0CE010E947D03F9CF19
:1007A000E88DEC0FFD2FF11DE35AFF4FF082088F0B
:1007B000EC85FD8585818062CECFCF93DF93FC01F0
:1007C00025892223C9F0EC018091110180FF08C026
:1007D00080911301848F828D8093130181E0838F38
:1007E000EC85FD85858185FD03C0848186FD04C07F
:1007F000CE010E947D03F4CFDF91CF91089580E078
:1008000090E0892B49F080E090E0892B29F00E944C
:10081000000081110E94000080E090E0892B29F007
:100820000E94610281110E94000080E090E0892B0B
:1008300049F080E090E0892B29F00E9400008111AE
:100840000E94000080E090E0892B29F00E9457026E
:1008500081110C940000089581E00895FC018081CD
:100860009181FC01FF2790FD06C080E094E1E82B18
:10087000F92B8081089580E093E1F9CFAF92BF9288
:10088000CF92DF92EF92FF920F931F93CF93DF935C
:1008900000D0CDB7DEB78B016B0126E0C20ED11CB4
:1008A0007B015C01A61AB70AC5018E0D9F1D8983C5
:1008B0009A83CE0101960E942E04F70181937F0155
:1008C000EC15FD0589F7C8010F900F90DF91CF91CE
:1008D0001F910F91FF90EF90DF90CF90BF90AF905E
:1008E0000895FC01FF2790FD12C080E094E1E82B01
:1008F000F92B60838FB7F8949DE923E094BF209390
:1009000000108FBF8091021081FDFCCF089580E020
:1009100093E1EDCF0F931F93CF93DF9300D0CDB72B
:10092000DEB710E000E009831A83CE0101960E9431
:100930002E04882321F060E0C8010E9471040F5F3B
:100940001F4F011581E0180771F70F900F90DF918D
:10095000CF911F910F910895DC01ED91FC910488D6
:10096000F589E02D23E030E00994FB01019000209F
:10097000E9F73197AF01461B570BDC01ED91FC9174
:100980000280F381E02D09948F929F92AF92BF92E3
:100990000F931F93CF93DF93CDB7DEB7A197CDBF52
:1009A000DEBF19A2423008F44AE08E010F5D1F4FEE
:1009B000842E912CB12CA12CA50194010E940E1122
:1009C000E62FB901CA01EA30ECF4E05DD801EE93FC
:1009D0008D01232B242B252B79F790E080E01097B5
:1009E00029F0BD0183E699E20E94B504A196CDBF2E
:1009F000DEBFDF91CF911F910F91BF90AF909F907D
:100A00008F900895E95CE2CFCF93DF934AE00E9494
:100A1000C404EC0162E57AE683E699E20E94B5043B
:100A20008C0F9D1FDF91CF9108950F931F93CF934C
:100A3000DF938C01D0E0C0E06115710519F00E94D0
:100A4000B504EC0162E57AE6C8010E94B5048C0F9A
:100A50009D1FDF91CF911F910F9108958091292BB8
:100A6000882341F065E57AE680912D2B90912E2B1D
:100A70000E94150588EDA89584BF809100018660CD
:100A8000809300018091010181FDFCCFFFCF0C9488
:100A9000B5044F925F926F927F928F929F92AF9226
:100AA000BF92CF92DF92EF92FF920F931F93CF935B
:100AB000DF937B016A0128013901BC0180912B2B56
:100AC00090912C2B0E9415058091292B882341F0B1
:100AD0006FE57AE680912D2B90912E2B0E94470591
:100AE0000E945C014B015C01D0E0C0E081E0C81ACB
:100AF000D1080E945C01681979098A099B0964156B
:100B0000750586059705D0F580912B2B90912C2BA0
:100B1000DC01ED91FC910084F185E02D0995892B94
:100B200041F380912B2B90912C2BDC01ED91FC91CA
:100B30000284F385E02D0995182F8091292B8823B5
:100B400061F080912D2B90912E2BDC01ED91FC9189
:100B50000190F081E02D612F0995CC15DD05A0F6FF
:100B6000103291F21D3081F287EF810F823060F2F6
:100B7000F701EC0FFD1F10832196C6CFCE0DDF1DB0
:100B800018828091292B8823C1F068E67AE680914B
:100B90002D2B90912E2BDF91CF911F910F91FF90D4
:100BA000EF90DF90CF90BF90AF909F908F907F900D
:100BB0006F905F904F900C941505DF91CF911F912E
:100BC0000F91FF90EF90DF90CF90BF90AF909F90EC
:100BD0008F907F906F905F904F900895CF92DF92AB
:100BE000EF92FF920F931F93CF93DF93CDB7DEB7B2
:100BF000EC97CDBFDEBF6C0181E080932A2BCE0144
:100C000001967C018CE3F70111928A95E9F700EDDA
:100C100017E020E030E04CE350E0B70184E79AE6CB
:100C20000E94490560E47DE6C7010E946C11892B92
:100C300011F410922A2B60ED77E080E090E00E94A2
:100C40002C018CE3F70111928A95E9F700ED17E08A
:100C500020E030E04CE350E0B70180E89AE60E94E3
:100C6000490560E47DE6C7010E946C11892B11F4EF
:100C700010922A2B60ED77E080E090E00E942C013A
:100C80008CE3F70111928A95E9F700ED17E020E077
:100C900030E04CE350E0B701C6010E94490560E432
:100CA0007DE6C7010E946C11892B11F410922A2B4A
:100CB00060ED77E080E090E00E942C018CE3F7018A
:100CC00011928A95E9F700ED17E020E030E04CE35F
:100CD00050E0B70184E99AE60E94490560E47DE6A8
:100CE000C7010E946C11892B11F410922A2B60EA23
:100CF0007FE080E090E00E942C018CE3F7011192EC
:100D00008A95E9F708E813E120E030E04CE350E091
:100D1000B70184EA9AE60E94490560E47DE6C701CE
:100D20000E946C11892B11F410922A2B60ED77E050
:100D300080E090E00E942C0166EB7AE6C7010E94F9
:100D40006C11DD24D394892B09F4D12C8CE3F701A9
:100D500011928A95E9F700ED17E020E030E04CE3CE
:100D600050E0B7018CEB9AE60E94490560E47DE60D
:100D7000C7010E946C11892B11F410922A2B8091CB
:100D80002A2B811102C00E942E058D2DEC96CDBF1D
:100D9000DEBFDF91CF911F910F91FF90EF90DF9019
:100DA000CF9008955F926F927F928F929F92AF92B1
:100DB000BF92CF92DF92EF92FF920F931F93CF9348
:100DC000DF93CDB7DEB7CA54D140CDBFDEBF81E0DF
:100DD00080932A2B32E0C32ED12C48ECB42E9E01F6
:100DE0002F5F3F4F7901F7012B2D11922A95E9F7DB
:100DF00008EB1BE020E030E048EC50E0B70188EC65
:100E00009AE60E94490563ED7AE680912D2B909138
:100E10002E2B0E944705B70180912D2B90912E2BF0
:100E20000E94150560E47DE6C7010E946C11892BC4
:100E3000A1F4CA94CD2879F0CC24C394D12CD3CF7B
:100E400068ED7BE680912D2B90912E2B0E9415054D
:100E500010922A2B48C110922A2BB3E0BB2E18EC1B
:100E6000A12E01EB802E0AE2902E8AEE682E8AE6F1
:100E7000782E92E8592E6E0189ECC80ED11CF7012C
:100E80002A2D11922A95E9F79F928F927F926F9265
:100E90001F925F92DF92CF920E9486110CED15E0B7
:100EA00020E030E048EC50E0B701C6010E9449055F
:100EB00067EF7AE680912D2B90912E2B0E944705AB
:100EC000B70180912D2B90912E2B0E94150560E487
:100ED0007DE6C7010E946C11CDBFDEBF892B29F4CE
:100EE000BA94B110CCCF10922A2BF3E0BF2EA8EC0D
:100EF000AA2EF7012A2D11922A95E9F708EE13E0A0
:100F000020E030E048EC50E0B7018BE09BE60E9427
:100F1000490569E27BE680912D2B90912E2B0E9452
:100F20004705B70180912D2B90912E2B0E9415051E
:100F300060E47DE6C7010E946C11892B29F4BA9404
:100F4000B110D7CF10922A2B43E0B42E58ECA52E27
:100F500061EB862E6AE2962E7DE3672E7BE6772E86
:100F6000E2E85E2EF7012A2D11922A95E9F79F9269
:100F70008F927F926F921F925F92DF92CF920E9428
:100F8000861108EE13E020E030E048EC50E0B701B5
:100F9000C6010E94490565E57BE680912D2B909165
:100FA0002E2B0E944705B70180912D2B90912E2B5F
:100FB0000E94150560E47DE6C7010E946C11CDBF5B
:100FC000DEBF892B29F4BA94B110CCCF10922A2B12
:100FD00023E0D22E38ECC32EF7012C2D11922A9546
:100FE000E9F700ED17E020E030E048EC50E0B70111
:100FF00085E69BE60E94490562E77BE680912D2B02
:1010000090912E2B0E944705B70180912D2B909136
:101010002E2B0E94150560E47DE6C7010E946C112D
:10102000892B29F4DA94D110D7CF10922A2B83E0A0
:10103000D82E98ECC92EF7012C2D11922A95E9F79C
:1010400000ED17E020E030E048EC50E0B7018BE81D
:101050009BE60E94490568E97BE680912D2B9091E3
:101060002E2B0E944705B70180912D2B90912E2B9E
:101070000E94150560E47DE6C7010E946C11892B72
:1010800029F4DA94D110D7CF10922A2B61EB7BE6AA
:10109000C7010E946C11009709F4D2CE25E13BE212
:1010A0003F932F9329EB3BE63F932F939F938F938F
:1010B0000E94B6110F900F900F900F900F900F900D
:1010C000019709F0BDCE63ED7BE680912D2B9091C9
:1010D0002E2B0E94470565E17BE280912D2B90919C
:1010E0002E2B0E94150580912A2BC65BDE4FCDBFAB
:1010F000DEBFDF91CF911F910F91FF90EF90DF90B6
:10110000CF90BF90AF909F908F907F906F905F90A7
:1011100008951F920F920FB60F9211248F939F93F1
:10112000AF93BF9380915F2990916029A09161292D
:10113000B09162290196A11DB11D80935F29909302
:101140006029A0936129B093622981E08093A60A67
:10115000BF91AF919F918F910F900FBE0F901F90F5
:1011600018951F920F920FB60F9211242F933F9351
:101170004F935F936F937F938F939F93AF93BF939F
:10118000EF93FF9385E00E94D001FF91EF91BF9113
:10119000AF919F918F917F916F915F914F913F910F
:1011A0002F910F900FBE0F901F9018951F920F92C6
:1011B0000FB60F9211242F933F934F935F936F932A
:1011C0007F938F939F93AF93BF93EF93FF9384E0AD
:1011D0000E94D001FF91EF91BF91AF919F918F91AC
:1011E0007F916F915F914F913F912F910F900FBE23
:1011F0000F901F9018951F920F920FB60F92112407
:101200002F933F934F935F936F937F938F939F930E
:10121000AF93BF93EF93FF9383E00E94D001FF91C0
:10122000EF91BF91AF919F918F917F916F915F915E
:101230004F913F912F910F900FBE0F901F901895D7
:101240001F920F920FB60F9211242F933F934F933B
:101250005F936F937F938F939F93AF93BF93EF931E
:10126000FF9382E00E94D001FF91EF91BF91AF9177
:101270009F918F917F916F915F914F913F912F91AE
:101280000F900FBE0F901F9018951F920F920FB6E0
:101290000F9211242F933F934F935F936F937F93FC
:1012A0008F939F93AF93BF93EF93FF9381E00E943F
:1012B000D001FF91EF91BF91AF919F918F917F915D
:1012C0006F915F914F913F912F910F900FBE0F90B3
:1012D0001F9018951F920F920FB60F9211242F9303
:1012E0003F934F935F936F937F938F939F93AF93AE
:1012F000BF93EF93FF9380E00E94D001FF91EF91A5
:10130000BF91AF919F918F917F916F915F914F911D
:101310003F912F910F900FBE0F901F9018951F9225
:101320000F920FB60F9211242F933F934F935F9319
:101330006F937F938F939F93AF93BF93EF93FF939D
:1013400080E09AE20E944703FF91EF91BF91AF9135
:101350009F918F917F916F915F914F913F912F91CD
:101360000F900FBE0F901F9018951F920F920FB6FF
:101370000F9211242F933F934F935F936F937F931B
:101380008F939F93AF93BF93EF93FF9380E09AE285
:101390000E940102FF91EF91BF91AF919F918F91B8
:1013A0007F916F915F914F913F912F910F900FBE61
:1013B0000F901F9018951F920F920FB60F92112445
:1013C0002F933F934F935F936F937F938F939F934D
:1013D000AF93BF93EF93FF9383E699E20E94470395
:1013E000FF91EF91BF91AF919F918F917F916F91FD
:1013F0005F914F913F912F910F900FBE0F901F90D3
:1014000018951F920F920FB60F9211242F933F93AE
:101410004F935F936F937F938F939F93AF93BF93FC
:10142000EF93FF9383E699E20E940102FF91EF910F
:10143000BF91AF919F918F917F916F915F914F91EC
:101440003F912F910F900FBE0F901F901895CF9343
:10145000DF93A0E0BAE212961D921C92139748EE19
:1014600053E060E070E014964D935D936D937C9330
:1014700017978DE29AE68D939C93119720E638E0BA
:101480001C962D933C931D9729E01E962C931E9736
:1014900028E01F962C931F9750961C9250972DE092
:1014A00051962C9351972CE052962C93529720E40E
:1014B00053962C93539754961C92549755961C927E
:1014C000559756961C92569757961C925797589632
:1014D0001C92589759961C92599726E25A962C932B
:1014E0005A975B961C925B975C961C925C97E3E61E
:1014F000F9E2128213824483558366837783808363
:10150000918380E298E0848795878FE086878EE0DC
:101510008787108A83E1818B82E1828B84E0838BD1
:10152000148A158A168A178A108E118E8BE1828F83
:10153000138E148E84E12DE93AE2E901982F199275
:101540009A95E9F721EB3AE294E6E90119929A9526
:10155000E9F725E13BE2E90119928A95E9F781E093
:101560008093292B10922A2BA0932B2BB0932C2BFA
:10157000E0932D2BF0932E2B43E650E067E47AE6C0
:1015800081EB9AE2DF91CF910C945D11CF93DF93C1
:10159000CDB7DEB7C25ED109CDBFDEBF88ED90E02A
:1015A00084BF90936100809102068660809302065A
:1015B00080910006816080930006809102068F7CF6
:1015C0008065809302061092E20582E08093E40534
:1015D00081E08093030A8EEF8093270A8093260A86
:1015E00080E880932D0A80932B0A8093290A8093A8
:1015F0002C0A80932A0A8093280A8BE08093000AA1
:1016000087E08093E505E0E8FAE037E02EEF90E828
:1016100085E031832487958780837096E03C4AE09B
:10162000F407B9F71092A10A8FE79EE38093AC0A02
:101630009093AD0A8091A50A81608093A50A1092CB
:10164000A00A8091A00A81608093A00A789488ED16
:10165000A89584BF80910001807F80930001109144
:1016600040001093400061E08AE00E94760061E053
:101670008AE00E94D50061E081E10E94760061E08D
:1016800081E10E94D50062E083E00E94D50062E023
:1016900084E00E94D50040E855E260E070E083E617
:1016A00099E20E94AC0488EE93E0A0E0B0E0809361
:1016B000672990936829A0936929B0936A2940E823
:1016C00055E260E070E080E09AE20E94AC0462E5DE
:1016D0007AE683E699E20E94B50463EF7BE683E64F
:1016E00099E20E94150560E17CE683E699E20E949A
:1016F0004705612F70E090E080E040E10E94C40463
:1017000062E57AE683E699E20E94B504BE0163527F
:101710007F4F90E080E00E943E04C352DF4F8881FB
:101720009981CD5DD040019679F4C152DF4F888117
:101730009981AA81BB81CF5DD0408F3F9F4FAF4F32
:10174000BF4F11F40E948A04812C912C5401D12C9A
:10175000412C512C32019E012F5F3F4F79018401B2
:10176000B701C4010E943E0489819A81009749F41F
:101770004B815C816D817E81452B462B472B09F483
:101780005CC0019780369A4E08F057C000938828B5
:101790001093892886E0F701A5E5B9E201900D9242
:1017A0008A95E1F78B819C81AD81BE8148165906EF
:1017B0006A067B0610F42C013D0160E27CE683E6BC
:1017C00099E20E9447054AE0C501B4010E94C404A1
:1017D0006CE27CE683E699E20E94470569817A81A2
:1017E00090E080E04AE00E94C40466E37CE683E681
:1017F00099E20E9447056B817C818D819E810E94C8
:10180000040589819A8180369A4E70F087E0880EAF
:10181000911CA11CB11CDD24D3949CEF891691046A
:10182000A104B10409F09BCF409257295092582946
:101830006092592970925A2912C0D110F5CF109296
:1018400088281092892810925529109256291092B2
:101850005729109258291092592910925A2980918B
:10186000572990915829A0915929B0915A29F89453
:101870008093842890938528A0938628B093872806
:10188000789460E47CE683E699E20E9447056091E3
:101890005729709158298091592990915A290E946D
:1018A000040560E08AE00E94760066E970E080E06E
:1018B00090E00E942C0161E08AE00E94760068E9D5
:1018C0007AE380E090E00E942C0188E691E080932A
:1018D0000A2890930B2880911304887F8093130427
:1018E000809113048360809313047AE0D72EE8EC90
:1018F000CE2E6CED75E080E090E00E942C01D701C7
:10190000EC2D1D92EA95E9F700ED17E020E030E0BC
:1019100048EC50E0B70183E59CE60E944905F701D9
:1019200090E080E02191222369F030ED320F3A30CF
:10193000C8F78F319105B0F7DC01AE59B74D2C9344
:101940000196F0CF8E59974DDC011C9243E150E097
:1019500062E678E28DE99AE20E945D111092B02A67
:101960006BE57CE680912D2B90912E2B0E944705F4
:101970006DE97AE280912D2B90912E2B0E94150516
:101980008DE99AE2FC0101900020E9F7CF018E5920
:101990009A420A9768F4DA94D110ABCF62E67CE6FB
:1019A00080912D2B90912E2B0E9415050E942E05C3
:1019B0000E94D206811103C060E87CE6F1CF0E944C
:1019C0005C0160935B2970935C2980935D299093FF
:1019D0005E2940E8642E49E6742E5DE9A52E5AE2A0
:1019E000B52E6AEA862E6CE6962E83E699E20E9470
:1019F0004B02892BA9F183E699E20E9429028D30DE
:101A0000A1F320918228309183288A3079F4F9015A
:101A1000E657F74D108281E0232B09F480E0809394
:101A200053291092822810928328DFCF283C310559
:101A300080F4A9014F5F5F4F409382285093832821
:101A40002657374DD9018C934657574DFA011082CE
:101A5000CCCF109282281092832810928A28C5CF6A
:101A60000E945C0100915B2910915C2920915D2905
:101A700030915E291B012C01201A310A420A530AB7
:101A800092018101003A1B4B2D40310508F49EC0A4
:101A900060935B2970935C2980935D2990935E2904
:101AA000809155299091562980369A4E98F08091D0
:101AB00088289091892807968B3F910508F4CEC01D
:101AC0000E948A0410928828109289281092552921
:101AD00010925629F8948091842890918528A0919D
:101AE0008628B09187287894809357299093582915
:101AF000A0935929B0935A2980915529909156293C
:101B00000196809355299093562900918828109129
:101B1000892835E5C32E39E2D32E09831A83F601CD
:101B200051906F01C7010E942E04581621F0652DB7
:101B3000C8010E9471040F5F1F4F2BE5222E29E27E
:101B4000322E2C143D0449F76EE97CE683E699E2D7
:101B50000E94470560915729709158298091592911
:101B600090915A290E94040580915A298F9380915F
:101B700059298F93809158298F93809157298F935A
:101B800095E1492E9BE2592E5F924F927F926F9280
:101B9000BF92AF929F928F921F923CED3F93FF9224
:101BA000EF920E948611CDBFDEBF6AE07DE68C3DDC
:101BB000910540F4C7010E94EE05882309F453C043
:101BC00064E37DE683E699E20E941505809154293D
:101BD000882349F0F8941092542978946AE283E6B5
:101BE00099E20E948C03809153298823A1F11092DD
:101BF000532963E47DE68AE898E20E946C11892B00
:101C000011F1F894209084283090852840908628FF
:101C10005090872878940E948A0410928828109205
:101C200089281092552910925629209257293092CE
:101C300058294092592950925A2969E47DE683E651
:101C400099E20E941505EAE8F8E2DF0189EC282E06
:101C50001D922A94E9F70E94FF03C7CE809388283B
:101C60009093892833CFC7010E94EE058111A8CF38
:101C70009DCEABE0B0E0EFE3FEE00C94CE107C0133
:101C80003B018A01FC0116821782838181FFC8C152
:101C9000CE0101965C01F7019381F30193FD8591DB
:101CA00093FF81913F01882309F453C1853239F4B0
:101CB00093FD859193FF81913F01853229F4B7010E
:101CC00090E00E943210E7CF912C212C312CFFE1C3
:101CD000F31538F08B3211F190F4803209F1833230
:101CE00029F137FC3CC020ED280F2A3050F536FE94
:101CF00020C08AE0989E200D1124922E06C08D32BD
:101D000091F0803371F7689430F8F30193FD859179
:101D100093FF81913F018111DACF21C0689431F89E
:101D2000689432F8F2CF689433F8EFCF689434F8BF
:101D3000ECCFEAE02E9E200D1124222E689435F877
:101D4000E4CF8E3229F436FC04C1689436F8DDCF36
:101D50008C3619F4689437F8D8CF8836B1F2982FBA
:101D60009F7D95549330E0F08336A1F18337C1F124
:101D7000833509F063C02801F2E04F0E511CF801D1
:101D8000C080D180692D70E036FC02C06FEF7FEF1C
:101D9000C6010E941C104C01689437F882010AC0E9
:101DA0000C5F1F4FFFE3F98388248394912C650116
:101DB000E89437F833FE2DC0522C8114910471F54C
:101DC000552009F468CFB70180E290E00E943210FC
:101DD0005A94F6CFF801808189830E5F1F4FE4CFBC
:101DE0002801F2E04F0E511CF801C080D180692D0E
:101DF00070E036FC02C06FEF7FEFC6010E94271033
:101E00004C018201D5CFB70180E290E00E943210F0
:101E10002A942814190409F0B0F7CECFF60137FC44
:101E2000859137FE81916F01B70190E00E943210D9
:101E300051105A94F1E08F1A9108BFCF843619F0EF
:101E4000893609F077C0F80137FE6BC06081718177
:101E5000828193810C5F1F4FF32DFF763F2E97FFFA
:101E600009C090958095709561957F4F8F4F9F4FDA
:101E7000689437F82AE030E0A5010E946210C82E6D
:101E8000CA188C2C432C36FE0CC0E89440F8C914B8
:101E900040F434FE05C032FC03C0F32DFE7E4F2E0D
:101EA000892C44FE95C0FE01EC0DF11D808180332C
:101EB00009F087C0242D297E422E842D8870582E4B
:101EC00043FC95C040FE8FC09C2C821418F42C0C4F
:101ED000922C981844FE91C0B70180E390E00E94D4
:101EE000321042FE09C088E790E041FE02C088E55A
:101EF00090E0B7010E943210C91408F48AC0CA9455
:101F0000D12C9FEFC91AD90ACA0CDB1CF6018291A9
:101F10006F01B70190E00E943210AC14BD04B1F71C
:101F20004FCF60817181072E000C880B990B0E5FDB
:101F30001F4F92CFD32CE894D4F82AE030E08537B5
:101F400039F1232D297FD22E8F3601F148F48835BF
:101F5000A9F0F701868197812B96E2E10C94E710B6
:101F6000803749F08837A9F7D4FE02C06894D2F8C8
:101F700020E130E00DC06894D4F8F6CF34FE03C001
:101F8000822F8660D82E20E132E002C028E030E0C7
:101F9000F801D7FE0FC060817181828193810C5F4F
:101FA0001F4FA5010E946210C82ECA183D2CE8944C
:101FB00037F867CF6081718190E080E00E5F1F4F3E
:101FC000F0CF42FC02C0839478CF8394839475CF82
:101FD000842D867809F471CFF6CFB70180E290E0C6
:101FE0000E94321083948214C0F3512C73CF522C70
:101FF0005818821408F46ECFF8CF842D867809F42F
:102000007BCF8BE241FE80E247FC8DE2B70190E09E
:1020100071CFB70180E390E00E9432109A946CCFA8
:102020008FEF9FEF99CF91110C94C010803219F06F
:1020300089508550C8F70895FC01059061507040A3
:102040000110D8F7809590958E0F9F1F0895FC0181
:102050006150704001900110D8F7809590958E0FD7
:102060009F1F08950F931F93CF93DF93182F092F6E
:10207000EB018B8181FD09C01FEF0FEF812F902FA6
:10208000DF91CF911F910F91089582FF14C02E818F
:102090003F818C819D81281739073CF4E881F981C3
:1020A000CF0101968883998310838E819F81019649
:1020B0008E839F83E3CFE885F985812F0995892B4E
:1020C000A1F3DACFFA01AA27283051F1203181F1AA
:1020D000E8946F936E7F6E5F7F4F8F4F9F4FAF4F30
:1020E000B1E03ED0B4E03CD0670F781F891F9A1F43
:1020F000A11D680F791F8A1F911DA11D6A0F711DF7
:10210000811D911DA11D20D009F468943F912AE002
:10211000269F11243019305D3193DEF6CF010895EA
:10212000462F4770405D4193B3E00FD0C9F7F6CF1B
:10213000462F4F70405D4A3318F0495D31FD4052E3
:10214000419302D0A9F7EACFB4E0A6959795879579
:1021500077956795BA95C9F7009761057105089558
:102160009B01AC010A2E0694579547953795279504
:10217000BA95C9F7620F731F841F951FA01D08959C
:102180009927882708950E94FF10A59F900DB49F5E
:10219000900DA49F800D911D112408952F923F92C0
:1021A0004F925F926F927F928F929F92AF92BF9267
:1021B000CF92DF92EF92FF920F931F93CF93DF9313
:1021C000CDB7DEB7CA1BDB0BCDBFDEBF09942A88B3
:1021D000398848885F846E847D848C849B84AA843B
:1021E000B984C884DF80EE80FD800C811B81AA81C8
:1021F000B981CE0FD11DCDBFDEBFED010895A29FE5
:10220000B001B39FC001A39F700D811D1124911DCA
:10221000B29F700D811D1124911D0895A1E21A2E07
:10222000AA1BBB1BFD010DC0AA1FBB1FEE1FFF1F7A
:10223000A217B307E407F50720F0A21BB30BE40BCA
:10224000F50B661F771F881F991F1A9469F7609511
:102250007095809590959B01AC01BD01CF010895CB
:10226000052E97FB1EF400940E94471157FD07D0DE
:102270000E940E1107FC03D04EF40C9447115095A8
:102280004095309521953F4F4F4F5F4F0895909562
:102290008095709561957F4F8F4F9F4F0895B7FF41
:1022A0000C94C3100E94C310821B930B0895EE0F71
:1022B000FF1F0590F491E02D0994FB01DC014150D2
:1022C000504048F001900D920020C9F701C01D92C6
:1022D00041505040E0F70895FB0151915523A9F07A
:1022E000BF01DC014D9145174111E1F759F4CD01D2
:1022F0000190002049F04D9140154111C9F3FB01B7
:102300004111EFCF81E090E001970895AEE0B0E099
:10231000ECE8F1E10C94DC100D891E898F89988D11
:1023200026E02C8309831A8397FF02C080E090E89F
:1023300001978D839E83AE01455E5F4F698D7A8DD7
:10234000CE0101960E94390E4D815E8157FD0AC073
:102350002F813885421753070CF49A01020F131F7F
:10236000F80110822E96E4E00C94F510AEE0B0E097
:10237000ECEBF1E10C94DE1085E08C838B899C8979
:1023800089839A83AE01495E5F4F6D897E89CE0154
:1023900001960E945A132E96E2E00C94F71020FD4D
:1023A00009C0FC0123FD05C022FF02C073836283C4
:1023B00051834083089544FD17C046FD1DC0DB01D5
:1023C000FC01AA0FBB1FEE1FFF1F1094D1F76A0F6D
:1023D0007B1F8E1F9F1F660F771F881F991F620F1D
:1023E000711D811D911D089533E0660F771F881FB1
:1023F000991F3150D1F7F3CF34E0F7CF0F931F93EC
:10240000CF93DF938C01C8010E946A14EC0197FD01
:1024100008C00E941310892BB1F7B801CE010E94A9
:10242000A614CE01DF91CF911F910F9108958F9245
:102430009F92AF92BF92EF92FF920F931F93CF9311
:10244000DF938C01D62F7A01B22E0E946A149C0170
:1024500033272B32310529F02D323105A9F4689448
:10246000B7F8D15061F480E0DF91CF911F910F91C7
:10247000FF90EF90BF90AF909F908F900895C8010C
:102480000E946A1497FDEFCFCB2DCD7F2B2D2073AB
:10249000F9F48033E9F4AA24AA94AD0E89F0C801B6
:1024A0000E946A1497FD0CC0282F2F7D283561F4F7
:1024B000C264D25029F0C8010E946A1497FF08C074
:1024C000812C912C54011BC0B6FE2BC0C260DA2DAA
:1024D000812C912C540120ED280F283028F1C4FDC7
:1024E00009C02A3008F1C6FF05C02F7D3FEE320F2C
:1024F0003630C8F0B8010E94A614C1FFB4CFC7FFA0
:1025000008C0B094A09490948094811C911CA11C4C
:10251000B11C2C2FB501A401C7010E94CF1181E08D
:10252000A3CFC261D4CF27504C2FC501B4010E9464
:10253000DB114B015C01C260D15009F3C8010E945C
:102540006A1497FFC8CFD9CFA0E2B0E0EAEAF2E17F
:102550000C94D3105C01962E7A01CE0101966C0189
:1025600080E2F60111928A95E9F7F501B3818901BC
:1025700030E020E0712C812CA0E041E050E0F80137
:10258000B3FD8591B3FF8191982F8F01811107C011
:1025900010E000E0C801A096EDE00C94EC108E3540
:1025A00019F42115310541F1A21713064CF48D35AC
:1025B00049F18D3229F4811006C0882483941DC00E
:1025C000882009F464C0E92FE695E695E695EC0DC0
:1025D000FD2DF11D892F8770BA0101C0660F8A9504
:1025E000EAF78081682B6083791651F0971510F413
:1025F0009F5FE9CF9150E7CFA1E02F5F3F4FBFCF63
:10260000812CFBCF882019F08E8180628E83AA23D3
:1026100059F0F6019E012F5D3F4F808180958083A8
:102620003196E217F307C9F788248394C5010E9405
:102630006A1497FD16C0E82FE695E695E695EC0D31
:10264000FD2DF11D208130E0AC014770552702C0FF
:10265000359527954A95E2F720FD06C0B5010E9401
:10266000A614882069F094CFE114F10429F0F70151
:102670008083C70101967C019A94812C9110D6CF5A
:10268000E114F10409F486CFF701108283CFE82F1B
:10269000E695E695E695EC0DFD2DF11D982F9770CA
:1026A000BA0101C0660F9A95EAF79081692B6083A1
:1026B000782EA3CFB0E0A0E0E0E6F3E10C94D110D7
:1026C0006C01EB015A01FC0116821782512CF601B4
:1026D000E380FE01E3FC8591E3FE8191182FEF0179
:1026E0008823E9F090E00E941310892B21F0C601A5
:1026F0000E94FE11ECCF153241F4FE01E3FC15916E
:10270000E3FE1191EF01153269F4C6010E946A14CB
:1027100097FD8EC01817D9F2B6010E94A614852D18
:1027200090E08AC000E01A3231F4E3FC1591E3FE38
:102730001191EF0101E0F12C20ED210F2A3048F139
:1027400001FF37C0FF2059F31836B1F11C3609F4E8
:102750003DC0112321F3612F70E080EA90E00E94D8
:102760005F14892BE1F2912C812C00FD06C0F5014C
:1027700080809180C50102965C011E3679F5F601D4
:102780004681578170E060E0202FC4010E94CF1184
:102790009ECF02606F2D70E090E080E040E20E94EA
:1027A000DB11F62EFE01E3FC1591E3FE1191EF0122
:1027B000C3CFFF24FA94C8CFFE01E3FC1591E3FEDA
:1027C0001191EF01183609F0C4CF08600460FE01D2
:1027D000E3FC1591E3FE1191EF01BBCF1336C1F479
:1027E00001FD02C0FF24F394C6010E946A1497FD04
:1027F0001FC08114910429F0F4018083C401019663
:102800004C01FA94F110F0CF00FD61CF53945FCFEB
:102810001B35B9F49E01A4016F2DC6010E94A412BC
:10282000EC01892B89F7F6018381807309F477CF56
:102830008FEF9FEF511073CFCDB7DEB7EFE00C9461
:10284000EA10C6010E94FE1197FDF2CF1F36A9F1D2
:1028500030F4143641F0193639F0006405C01337EE
:10286000B9F01537D1F70062202FA4016F2DC601F2
:102870000E9417128111C8CFD6CF8114910429F07C
:10288000F4016082C40101964C01FA94FF2071F0BA
:10289000C6010E946A143C0197FD08C00E941310F3
:1028A000892B59F3B601C3010E94A6148114910427
:1028B00009F4AACFF4011082A7CF0061D5CFFC01A3
:1028C0000590061621F00020D9F7C0010895319730
:1028D000CF010895CF93DF93EC012B8120FF1AC025
:1028E00026FF0CC02F7B2B838E819F8101968E83C8
:1028F0009F838A8190E0DF91CF91089522FF18C0D5
:10290000E881F9818081082E000C990B009729F449
:1029100020622B838FEF9FEFEECF3196E883F98310
:102920002E813F812F5F3F4F2E833F839927E3CF37
:10293000EA85FB85099597FFF3CF2B81019621F05E
:1029400080E2822B8B83E6CF80E1FBCFFB012381EA
:1029500020FF11C026FD0FC08F3F980771F08283C2
:102960002F7D2064238326813781215031092683DE
:102970003783992708958FEF9FEF0895F894FFCF3D
:102980003939393900000000000000000000000063
:10299000000005010101010101000000000000002C
:1029A0000000000000000000000000020300000121
:1029B00002030405060700010203040500010203E7
:1029C00004050607000102030405060700010203CF
:1029D00000010203040506000000000000000001E1
:1029E00001010101010202020202020202030303C9
:1029F0000303030303040404040505050505050595
:102A00000102040810204080010204081020010285
:102A100004081020408001020408102040800102B8
:102A2000040801020408102040000000008C03A3E9
:102A3000011A02DD034B0229023D0224031903ACF3
:102A40000484026B022C0473656E736F722E6E65C4
:102A500074000D0A005245534554204D4355005B08
:102A600044454255475D20005B444542554720455B
:102A70004E445D0041542B48545450494E49540033
:102A800041542B48545450504152413D22434944F3
:102A9000222C310041542B48545450414354494F47
:102AA0004E3D300041542B48545450524541443D12
:102AB000302C313030005345544F4B0041542B489B
:102AC0005454505445524D0041542B4347415454A3
:102AD0003D31005B636F6E28295D2041542B4347D5
:102AE0004154543D31202D3E200041542B4353543A
:102AF000543D22257322005B636F6E28295D2041BF
:102B0000542B43535454202D3E200041542B534109
:102B10005042523D332C312C22434F4E5459504594
:102B2000222C224750525322005B636F6E28295D8E
:102B300020434F4E54595045202D3E200041542BE8
:102B400053415042523D332C312C2241504E222CC5
:102B500022257322005B636F6E28295D2041504E51
:102B6000202D3E200041542B53415042523D312CE8
:102B700031005B636F6E28295D2041542B53415017
:102B800042523D312C31202D3E200041542B5341E7
:102B90005042523D322C31005B636F6E28295D201C
:102BA00041542B53415042523D322C31202D3E2076
:102BB000002B53415042523A002B53415042523A5B
:102BC00020252A642C252A642C222531395B5E229B
:102BD0005D220049503A20004272616B20706F7094
:102BE0007261776E65676F206164726573752049E5
:102BF000502E0053544152542041546D6567613446
:102C0000383039202F204D656761436F7265580059
:102C1000526573657420666C6167733A2030780082
:102C2000454550524F4D206164723D00207A6170DD
:102C300069736F773D0020776172746F73633D0035
:102C40004C69637A6E696B207A20454550524F4D2E
:102C50003A200041542B43494D4900494D53493ACC
:102C600020004272616B20706F707261776E6567D1
:102C70006F20494D5349202D2072657365742E00D5
:102C80004272616B20706F6C61637A656E6961205E
:102C900047505253202D2072657365742E004C6985
:102CA000637A6E696B202D3E200041542B485454AA
:102CB00050504152413D2255524C222C226874748E
:102CC000703A2F2F646C622E636F6D2E706C2F61C3
:102CD00070692F746C6D2F76312F7365742E706848
:102CE000703F6469643D3126696D73693D257326C3
:102CF0006B65793D25732669703D25732670617972
:102D00006C6F61643D256C752200426C61643A20F1
:102D100061647265732055524C206E6965206D693F
:102D200065736369207369652077206275666F72C9
:102D30007A652E004854545020474554202D3E209B
:102D40004F4B00636C65617200454550524F4D20FA
:0E2D50007779637A79737A637A6F6E792E00E1
:00000001FF
