:020000040000FA
:100000000C9463000C948B000C948B000C942808C7
:100010000C9428080C9428080C948B000C948B00EA
:100020000C948B000C948B000C948B000C948B0024
:100030000C948B000C948B000C948B000C948B0014
:100040000C9486070C948B000C94F6070C94D00744
:100050000C948B000C948B000C948B000C948B00F4
:100060000C948B000C948B0000000008000201002F
:100070000003040700000000000000000000000072
:1000800023002600290000000000240027002A0089
:1000900000000000250028002B00040404040404D0
:1000A0000404020202020202030303030303010227
:1000B00004081020408001020408102001020408F6
:1000C0001020EC08F70B11241FBECFEFD8E0DEBFE5
:1000D000CDBF26E0AAE6B4E001C01D92A33FB2075F
:1000E000E1F714E0A0E0B1E0EEE9F2E202C0059031
:1000F0000D92AA36B107D9F710E0C2E6D0E004C0ED
:100100002197FE010E94680CC136D107C9F70E94F1
:10011000FA090C9442110C940000FC0130E020E03C
:100120009191992371F080ED890F8A30C8F72F31B2
:100130003105B4F7D901AD51BA4F9C932F5F3F4FB2
:10014000EFCF2D513A4FF901108283EE95E00895DB
:100150003FB7F8948091170590911805A091190563
:10016000B0911A0526B5A89B05C02F3F19F001963E
:10017000A11DB11D3FBFBA2FA92F982F8827BC0101
:10018000CD01620F711D811D911D42E0660F771F29
:10019000881F991F4A95D1F708958F929F92AF9229
:1001A000BF92CF92DF92EF92FF924B015C010E94CF
:1001B000A8006B017C010E94A8006C197D098E09C2
:1001C0009F09683E734081059105A8F321E0821ADA
:1001D0009108A108B10888EEC80E83E0D81EE11C82
:1001E000F11C81149104A104B10429F7FF90EF9050
:1001F000DF90CF90BF90AF909F908F900895AF9277
:10020000BF92CF92DF92EF92FF920F931F93CF9303
:10021000DF936C017B018B01040F151FEB015E0165
:10022000AE18BF08C017D10759F06991D601ED91FA
:10023000FC910190F081E02DC6010995892B79F799
:10024000C501DF91CF911F910F91FF90EF90DF904B
:10025000CF90BF90AF900895FC01538D448D252F12
:1002600030E0842F90E0821B930B541710F0CF9650
:10027000089501970895FC01918D828D981761F082
:10028000A28DAE0FBF2FB11D5D968C91928D9F5F99
:100290009F73928F90E008958FEF9FEF0895FC0178
:1002A000918D828D981731F0828DE80FF11D858D2B
:1002B00090E008958FEF9FEF0895FC01918D228DBE
:1002C000892F90E0805C9F4F821B91098F73992743
:1002D000089583E096E00E945D0121E0892B09F4F6
:1002E00020E0822F0895CF93DF93CBE1D5E083E028
:1002F00096E00E945D01892B31F083E096E00E9438
:100300003B018993F4CFDF91CF9108950E94690159
:1003100081110C9473010895FC01A48DA80FB92FCD
:10032000B11DA35ABF4F2C91848D90E001968F731D
:100330009927848FA689B7892C93A089B1898C913C
:10034000837080648C93938D848D981306C002888B
:10035000F389E02D80818F7D80830895EF92FF9255
:100360000F931F93CF93DF93EC0181E0888F9B8DD8
:100370008C8D98131AC0E889F989808185FF15C092
:100380009FB7F894EE89FF896083E889F9898081B5
:100390008370806480839FBF81E090E0DF91CF9184
:1003A0001F910F91FF90EF900895F62E0B8D10E0A6
:1003B0000F5F1F4F0F731127E02E8C8D8E110CC015
:1003C0000FB607FCFACFE889F989808185FFF5CF60
:1003D000CE010E948C01F1CFEB8DEC0FFD2FF11DB2
:1003E000E35AFF4FF0829FB7F8940B8FEA89FB899D
:1003F00080818062CFCFCF93DF93EC01888D8823FB
:10040000B9F0AA89BB89E889F9898C9185FD03C077
:10041000808186FD0DC00FB607FCF7CF8C9185FF5C
:10042000F2CF808185FFEDCFCE010E948C01E9CF14
:10043000DF91CF9108952091AC043091AD0428173D
:10044000390771F49091AA048091AB04981741F098
:10045000E091AA04F0E0E659FB4F808190E0089516
:100460008FEF9FEF08950895EF92FF920F931F93E0
:10047000CF93DF93DC015C96ED90FC905D97E114E7
:10048000F10479F481E090E013969C938E93129797
:1004900090E080E0DF91CF911F910F91FF90EF905E
:1004A00008955196ED91FC91529750968C915097EA
:1004B000982F90950FB75E962C915E97122F127021
:1004C00021FD6095F8942081112319F1282B2083B8
:1004D000E7012197F1F728E0462F50E0308160FFD7
:1004E0001AC0382B3083E7012197F1F7BA017595CF
:1004F0006795215089F7112381F0808189238083BA
:100500000FBF5C968D919C910197F1F781E090E08F
:10051000C1CF2923DCCF3923E5CF9081892BEFCFC1
:100520002091AC043091AD042817390761F4809113
:10053000AB042091AA0490E0805C9F4F821B91093C
:100540008F739927089590E080E008952091AC047E
:100550003091AD0428173907B9F49091AA0480911D
:10056000AB04981789F0E091AA04F0E0E659FB4F3C
:1005700080812091AA0430E02F5F3F4F2F733327F3
:100580002093AA0490E008958FEF9FEF089590E0E4
:1005900080E00895FB0101900020E9F73197AF0159
:1005A000461B570BDC01ED91FC910280F381E02D9D
:1005B0000994CF93DF93FC0144815581608171815F
:1005C00083E096E00E94FF00EC0166E671E083E0C4
:1005D00096E00E94CA028C0F9D1FDF91CF91089573
:1005E0000F931F93CF93DF938C01D0E0C0E0611590
:1005F000710519F00E94CA02EC0166E671E0C801BB
:100600000E94CA028C0F9D1FDF91CF911F910F9105
:100610000895CF93DF93EC0169E671E080ED96E0F9
:100620000E94F00260ED77E080E090E00E94CD0053
:1006300065E771E080ED96E00E94F00260ED77E002
:1006400080E090E00E94CD00BE0180ED96E00E9427
:10065000F00260ED77E080E090E00E94CD0069E874
:1006600071E080ED96E00E94F00260EA7FE080E0B9
:1006700090E00E94CD0069E971E080ED96E00E9473
:10068000F00260ED77E080E090E00E94CD006BEA40
:1006900071E080ED96E0DF91CF910C94F00290E054
:1006A00080E008958F929F92AF92BF92CF92DF9297
:1006B000EF92FF920F931F93CF93DF935C017B0127
:1006C0008A016DE370E08BE195E00E94590EEC0128
:1006D000892B71F480E0DF91CF911F910F91FF90F2
:1006E000EF90DF90CF90BF90AF909F908F90089544
:1006F00089818B3209F443C021966BE370E0CE010F
:100700000E94590E6C01009729F34C018C1A9D0A26
:10071000A401BE01C5010E946B0EA80CB91CF50115
:100720001082FFEFCF1ADF0A6BE370E0C6010E9470
:10073000590EEC01009771F25C01AC18BD08A501DF
:10074000B601C7010E946B0EEA0CFB1CF701108278
:1007500021966BE370E0CE010E94590E009709F4D8
:10076000B9CF7C01EC1AFD0AA701BE01C8010E94A5
:100770006B0E0E0D1F1DF801108281E0ACCF22968A
:10078000BCCF0F931F93CF93DF93EC0188819981A6
:10079000009759F02A813B812617370730F081E016
:1007A000DF91CF911F910F9108958B016F5F7F4F64
:1007B0000E94930D009759F0998388831B830A83C5
:1007C0002C813D81232B59F7FC011082E8CF80E07A
:1007D000E7CFCF93DF93EC0188819981009711F0E7
:1007E0000E940A0D198218821D821C821B821A82A5
:1007F000DF91CF910895EF92FF920F931F93CF93C4
:10080000DF938C017B01EB0109900020E9F7219730
:10081000C61BD70BBE010E94C103811109C0C801CC
:10082000DF91CF911F910F91FF90EF900C94E9030E
:10083000F801D583C483B70180819181DF91CF9185
:100840001F910F91FF90EF900C94640E0F931F93E4
:10085000CF93DF93EC0181E08093A0061092A10674
:100860001092A5061092A4061092A7061092A60652
:100870001092A9061092A80668E671E084EA96E054
:100880000E94FB0388E691E09093AB068093AA0652
:100890001092AD061092AC061092AF061092AE0602
:1008A00082E1E0EBF6E0DF011D928A95E9F7109214
:1008B000C2061092C3061092C4061092C50610928A
:1008C000C6061092C7061092C8061092C90610926A
:1008D000CB061092CA061092CD061092CC0610924A
:1008E000CF061092CE0668E671E08AEC96E00E9490
:1008F000FB03B6E0C43ADB0799F0088119810115C2
:10090000110551F00C80DD81C02DBE0184EA96E016
:100910000E94C10381110CC084EA96E00E94E903A1
:1009200081E08093A106DF91CF911F910F910895EF
:10093000D093A906C093A806B8018091A40690910F
:10094000A5060E94640EECCFCF92DF92EF92FF9249
:100950000F931F93CF93DF93CDB7DEB7C05AD10962
:100960000FB6F894DEBF0FBECDBF8C016B0168EEF1
:1009700073E080E090E00E94CD007601D7016D9198
:100980007D018091A2069091A306662341F0DC01CF
:10099000ED91FC910190F081E02D0995EFCF67E694
:1009A00071E00E94CA0260ED77E080E090E00E9472
:1009B000CD0067EB71E0CE0101960E947A0E892B83
:1009C00011F01092A0066DEB71E0CE0101960E942D
:1009D0007A0E892B19F081E08093A00662EC71E019
:1009E000CE0101960E947A0E892B81F0CE010196EC
:1009F0000E948D00FC0101900020E9F7AF01481B27
:100A0000590BBC018EEA96E00E94500ED801119657
:100A10001C921E9213961C921E92129715961C926F
:100A20001E921497BE016F5F7F4FC8010E94FB03A7
:100A3000C801C056DF4F0FB6F894DEBF0FBECDBF62
:100A4000DF91CF911F910F91FF90EF90DF90CF90AA
:100A50000895FC0180819181009711F00C940A0D9A
:100A600008951F93CF93DF9300D000D000D0CDB76F
:100A7000DEB78EEA96E0FC0101900020E9F7CF0195
:100A80008F5A9640099788F411E01093A00660EC05
:100A900071E0CE0101960E94A404CE0101960E944D
:100AA00029058091A006882381F38EEA96E0269698
:100AB0000FB6F894DEBF0FBECDBFDF91CF911F916F
:100AC00008959F92AF92BF92CF92DF92EF92FF92E2
:100AD0000F931F93CF93DF93CDB7DEB7C856D140A6
:100AE0000FB6F894DEBF0FBECDBF68EE73E080E0B6
:100AF00090E00E94CD006BE175E083E096E00E94FB
:100B0000F00268EC71E08BE195E00E947A0E892B8F
:100B100071F00E943105BC0183E096E00E94F00272
:100B2000EBE1F5E088ECDF011D928A95E9F76FECC7
:100B300071E08BE195E00E947A0E892B71F00E94A2
:100B40004F03BC0183E096E00E94F002EBE1F5E088
:100B500088ECDF011D928A95E9F767ED71E08BE182
:100B600095E00E947A0E892BB9F18BE195E00E9405
:100B70008D007C01BC0183E096E00E94F0026701D9
:100B800010E000E0F70101900020E9F73197EE193D
:100B9000FF0958010E171F0778F4F60191906F01B5
:100BA0000F5F1F4FC5010E941B0C981659F3692D4A
:100BB000C5010E94230CE6CFC8010E941B0C8823AC
:100BC00021F060E0C8010E94230CEBE1F5E088EC25
:100BD000DF011D928A95E9F76FED71E08BE195E0F9
:100BE0000E947A0E892B09F46FC07E01B3EDEB0EE3
:100BF000F11C8E010B5F1E4FAE01415A5E4FB701D3
:100C0000C8010E945203882309F47AC0B80183E026
:100C100096E00E94F002B70183E096E00E94F002A5
:100C2000CE018F559F4F20E1E6E0F1E0DC0101901D
:100C30000D922A95E1F7FC01709622E2DF011D92E8
:100C40002A95E9F79E01295C3E4F45E0E8E3F1E093
:100C5000D90101900D924A95E1F7F901359645E0E9
:100C6000DF011D924A95E9F7FF92EF921F930F93D0
:100C70003F932F939F938F938CEE91E09F938F934D
:100C80001F9280EA8F93045011401F930F930E948C
:100C9000940E64E472E083E096E00E94F00268EE55
:100CA00073E080E090E00E94CD00C8010E9409033B
:100CB000EBE1F5E088ECDF011D928A95E9F70FB6CC
:100CC000F894DEBF0FBECDBF60E772E08BE195E028
:100CD0000E947A0E892B09F483C06E01FBEFCF1AB4
:100CE000FEEFDF0A7E0183EDE80EF11C8E01095C48
:100CF0001E4FA601B701C8010E945203811119C0FD
:100D00006CE472E083E096E00E94F002C859DE4F86
:100D10000FB6F894DEBF0FBECDBFDF91CF911F910C
:100D20000F91FF90EF90DF90CF90BF90AF909F908A
:100D30000895CE018F559F4F20E1E6E0F1E0DC0100
:100D400001900D922A95E1F7FC01709622E2DF01F5
:100D50001D922A95E9F79E01215A3E4F45E0E8E3AE
:100D6000F1E0D90101900D924A95E1F7F90135962C
:100D700045E0DF011D924A95E9F7DF92CF92FF929D
:100D8000EF921F930F933F932F939F938F938DE732
:100D900092E09F938F931F9280EA8F938E010F5F53
:100DA0001F4F1F930F930E94940E64E472E083E040
:100DB00096E00E94F00268EE73E080E090E00E940E
:100DC000CD00C8010E940903EBE1F5E088ECDF01EA
:100DD0001D928A95E9F70FB6F894DEBF0FBECDBF1E
:100DE00066EE72E08BE195E00E947A0E892B51F05D
:100DF00081E08093A106EBE1F5E088ECDF011D9234
:100E00008A95E9F76FEE72E08BE195E00E947A0E29
:100E1000892B09F47BCF68EF72E083E096E00E94B3
:100E2000F00263E173E083E096E00E94CA0265E2AB
:100E300073E0CE018F559F4F0E94A404CE018F55C1
:100E40009F4F0E94D9026CE273E083E096E00E941B
:100E5000CA0264E473E0CE0101960E94A404CE01AC
:100E600001960E94D902CE0101960E9429056DE4E7
:100E700073E083E096E00E94CA0262E673E0CE016E
:100E800001960E94A404CE0101960E94D902CE01CF
:100E900001960E9429056BE673E083E096E00E94CC
:100EA000CA0264E873E0CE0101960E94A404CE0158
:100EB00001960E94D902CE0101960E9429056EE892
:100EC00073E083E096E00E94CA0266EA73E0CE0116
:100ED00001960E94A404CE0101960E94D902CE017F
:100EE00001960E94290563EB73E083E096E00E947F
:100EF000F002CE018F559F4F0E942905EBE1F5E0EE
:100F000088ECDF011D928A95E9F700CF1F920F92BE
:100F10000FB60F9211242F933F938F939F93AF930C
:100F2000BF938091130590911405A0911505B09180
:100F300016053091120523E0230F2D3758F5019641
:100F4000A11DB11D209312058093130590931405E4
:100F5000A0931505B093160580911705909118057B
:100F6000A0911905B0911A050196A11DB11D80939C
:100F7000170590931805A0931905B0931A05BF9112
:100F8000AF919F918F913F912F910F900FBE0F9036
:100F90001F90189526E8230F0296A11DB11DD2CFF0
:100FA0001F920F920FB60F9211242F933F934F93DE
:100FB0005F936F937F938F939F93AF93BF93EF93C1
:100FC000FF9383E096E00E948C01FF91EF91BF9127
:100FD000AF919F918F917F916F915F914F913F91D1
:100FE0002F910F900FBE0F901F9018951F920F9288
:100FF0000FB60F9211242F938F939F93EF93FF932C
:10100000E0911306F09114068081E0911906F091A9
:101010001A0682FD1BC0908180911C068F5F8F7322
:1010200020911D06821741F0E0911C06F0E0ED5F73
:10103000F94F958F80931C06FF91EF919F918F91AF
:101040002F910F900FBE0F901F9018958081F4CFB5
:101050001F920F920FB60F9211242F933F934F932D
:101060005F936F937F938F939F93AF93BF93EF9310
:10107000FF93E091AC04F091AD04309749F0A68560
:10108000B7858585968D91FF14C09C918923A1F425
:10109000FF91EF91BF91AF919F918F917F916F9150
:1010A0005F914F913F912F910F900FBE0F901F9026
:1010B00018959C91892361F7A389B4899C918589AE
:1010C000809589238C93868997890197F1F7608DA4
:1010D000718DA685B785558538E020E0CB01019755
:1010E000F1F7822F90E095958795282F4C91452315
:1010F00009F02068315091F7868D81FD209580910F
:10110000AB0490E001968F7399273091AA043817A9
:1011100099F0A091AB04B0E0A659BB4F2C938093FB
:10112000AB04828D938D0197F1F7A389B4898C91DB
:101130009589892B8C93ACCF868D8160868FF1CF7A
:1011400090E0FC01E859FF4F2491FC01E255FF4F6C
:101150003491FC01E656FF4FE491EE23C9F02223BF
:1011600039F0233001F1A8F4213019F1223029F1AE
:10117000F0E0EE0FFF1FE057FF4FA591B4918FB73E
:10118000F894EC91611126C030953E233C938FBFBB
:1011900008952730A9F02830C9F0243049F780910C
:1011A00080008F7D03C0809180008F7780938000C6
:1011B000DFCF84B58F7784BDDBCF84B58F7DFBCF48
:1011C0008091B0008F778093B000D2CF8091B00033
:1011D0008F7DF9CF3E2BDACFEF92FF920F931F93C3
:1011E000CF93DF9300D000D000D0CDB7DEB7109200
:1011F00006061092050688EE93E0A0E0B0E080932A
:10120000070690930806A0930906B0930A0626E401
:1012100031E0309304062093030625EC30E0309350
:10122000100620930F0624EC30E030931206209332
:10123000110620EC30E0309314062093130621ECC5
:1012400030E0309316062093150622EC30E0309300
:1012500018062093170626EC30E030931A062093E8
:10126000190610921C0610921D0610921E0610926E
:101270001F061092D3061092D2068093D406909344
:10128000D506A093D606B093D70688E591E0909353
:10129000D1068093D0061092E7061092E6061092CF
:1012A000E9061092E8061092EB061092EA061092F8
:1012B000ED061092EC066091EE066E7F6D7F6093F6
:1012C000EE066695617081E0682783E00E94A008C1
:1012D00041EB50E0FA0164918DE990E0FC0124912A
:1012E000222399F030E0220F331FF901EA57FF4F14
:1012F000A591B491F901E057FF4F259134912FB793
:10130000F8943C91632B6C932FBFFA014491409366
:10131000E006FC018491E82FF0E0EE0FFF1FE0579C
:10132000FF4F859194919093E2068093E10650EBF4
:10133000E52E50E0F52EF70124910CE910E0F801BC
:1013400084918823C9F090E0880F991FFC01EA5727
:10135000FF4FA591B491FC01E057FF4F4591549187
:101360003FB7F8949C91822F809598239C93FA0123
:101370009081892380833FBF8091EE0681FD04C068
:1013800061E082E00E94A00882E08093DC06F70121
:10139000E490E092DD06F8010491E02FF0E0EE0F1A
:1013A000FF1FE458FF4F859194919093DF0680933F
:1013B000DE061A8219821C821B821E821D826AEC42
:1013C00073E0CE0101960E94FB03CE0101960E94BC
:1013D0002604CE0101960E94290526960FB6F894A0
:1013E000DEBF0FBECDBFDF91CF911F910F91FF9058
:1013F000EF900895CF93DF93CDB7DEB7CA56D109EA
:101400000FB6F894DEBF0FBECDBF789484B582606E
:1014100084BD84B5816084BD85B5826085BD85B598
:10142000816085BD80916E00816080936E00109216
:101430008100809181008260809381008091810091
:101440008160809381008091800081608093800022
:101450008091B10084608093B1008091B000816080
:101460008093B00080917A00846080937A008091AC
:101470007A00826080937A0080917A008160809304
:101480007A0080917A00806880937A001092C1007F
:10149000E0911306F091140682E08083E0910F063C
:1014A000F09110061082E0911106F09112068FEC77
:1014B000808310921B06E0911706F091180686E0D3
:1014C0008083E0911506F09116068081806180830B
:1014D000E0911506F0911606808188608083E09186
:1014E0001506F0911606808180688083E0911506CC
:1014F000F091160680818F7D808388EE93E0A0E0D6
:10150000B0E08093070690930806A0930906B09375
:101510000A061092EB061092EA061092E906109263
:10152000E8061092E7061092E6068DE991E09093A6
:10153000ED068093EC069091DC06963108F047C0EA
:101540002DEB30E03093E7062093E6062BE931E0FF
:101550003093E9062093E8062CE231E03093EB0665
:101560002093EA062091680084E0983048F031E04A
:101570009E3008F430E081E001C0880F3A95EAF728
:10158000822B809368002DE630E0983050F02BE6F7
:1015900030E09E3030F02CE630E0963110F030E054
:1015A00020E03093E4062093E306292F30E09830C2
:1015B00008F010C181E001C0880F9A95EAF7809386
:1015C000E5068091EC069091ED060197F1F7809188
:1015D000EA069091EB06892B49F1E091AC04F09179
:1015E000AD0486E0E03DF80709F1309739F0A389B2
:1015F000B4899C918589809589238C938091EE068E
:101600008E7F8093EE061092AB041092AA0480EDB8
:1016100096E09093AD048093AC04E091E306F091E2
:10162000E40680819091E506892B808364E670E072
:1016300080E090E00E94CD000E944F03FC010190E9
:101640000020E9F7AF01481B590BBC018EEA94E07A
:101650000E94500E80ED96E09093A3068093A20620
:101660008091A106882331F065ED73E083E096E078
:101670000E94F002FF24F3948E010F5F1F4FF0923F
:10168000A0066DED73E0C8010E94A404C8010E9489
:1016900029058091A006882391F31A8219821C8261
:1016A0001B821E821D8269EE73E0C8010E94FB034B
:1016B000C8010E94D902C8010E9429050E94310573
:1016C000BC0183E096E00E94F002FF24F394F092C4
:1016D000A00668E074E0C8010E94A404C8010E944A
:1016E00029058091A006882391F3FF24F394F092BA
:1016F000A00663E174E0C8010E94A404C8010E942E
:1017000029058091A006882391F3FF24F394F09299
:10171000A00666E274E0C8010E94A404C8010E9409
:1017200029058091A006882391F3CC24C39484E4F6
:10173000E82E84E0F82E94E6D92EC092A00680917F
:10174000A5068F938091A4068F93FF92EF921F922C
:10175000DF921F930F930E94940EB801CE018B5914
:101760009F4F0E94A404CE018B599F4F0E942905D0
:101770000FB6F894DEBF0FBECDBF8091A0068823C0
:10178000E1F2FF24F394F092A0066CE574E0C80146
:101790000E94A404C8010E9429058091A006882304
:1017A00091F3FF24F394F092A00666EA73E0C80177
:1017B0000E94A404C8010E9429058091A0068823E4
:1017C00091F30E9461050E9469018823D1F30E9470
:1017D0007301F7CF9E3040F42850310981E001C0F9
:1017E000880F2A95EAF7EBCE2E503109F7CF8AEC15
:1017F00096E00E94290584EA96E00E94290588E582
:1018000091E09093D1068093D0068091AC049091A2
:10181000AD04805D964071F4E091E306F091E4063A
:1018200090818091E5068095892380831092AD0494
:101830001092AC040895F999FECF92BD81BDF89A3B
:10184000992780B50895262FF999FECF1FBA92BD2A
:1018500081BD20BD0FB6F894FA9AF99A0FBE019691
:1018600008952F923F924F925F926F927F928F9244
:101870009F92AF92BF92CF92DF92EF92FF920F931F
:101880001F93CF93DF93CDB7DEB7CA1BDB0B0FB629
:10189000F894DEBF0FBECDBF09942A8839884888E6
:1018A0005F846E847D848C849B84AA84B984C8847C
:1018B000DF80EE80FD800C811B81AA81B981CE0F73
:1018C000D11D0FB6F894DEBF0FBECDBFED01089558
:1018D000EE0FFF1F0590F491E02D09940F931F93D5
:1018E000CF93DF938230910510F482E090E0E09195
:1018F000F106F091F20630E020E0B0E0A0E0309791
:1019000099F42115310509F44AC0281B390B2430FC
:101910003105D8F58A819B816115710589F1FB013B
:1019200093838283FE0111C0408151810281138122
:1019300048175907E0F04817590799F4109761F0D4
:1019400012960C93129713961C933296CF01DF9147
:10195000CF911F910F9108950093F1061093F20615
:10196000F4CF2115310551F04217530738F0A90182
:10197000DB019A01BD01DF01F801C1CFEF01F9CF11
:101980009093F2068093F106CDCFFE01E20FF31F94
:10199000819391932250310939832883D7CF2091A5
:1019A000EF063091F006232B41F420910201309193
:1019B00003013093F0062093EF062091000130914F
:1019C00001012115310541F42DB73EB740910401C5
:1019D00050910501241B350BE091EF06F091F006C4
:1019E000E217F307A0F42E1B3F0B2817390778F0F6
:1019F000AC014E5F5F4F2417350748F04E0F5F1F55
:101A00005093F0064093EF06819391939FCFF0E0BF
:101A1000E0E09CCFCF93DF930097E9F0FC01329791
:101A200013821282A091F106B091F206ED0130E02E
:101A300020E01097A1F420813181820F931F209123
:101A4000EF063091F0062817390709F061C0F093CE
:101A5000F006E093EF06DF91CF910895EA01CE17EB
:101A6000DF07E8F54A815B819E0141155105B1F719
:101A7000E901FB83EA8349915991C40FD51FEC1703
:101A8000FD0761F4808191810296840F951FE90121
:101A900099838883828193819B838A83F0E0E0E04D
:101AA00012968D919C9113970097B9F52D913C91C9
:101AB0001197CD010296820F931F2091EF0630916E
:101AC000F0062817390739F6309751F51092F206CB
:101AD0001092F106B093F006A093EF06BCCFD3832B
:101AE000C28340815181840F951FC817D90761F4C3
:101AF0004E5F5F4F88819981480F591F5183408302
:101B00008A819B81938382832115310509F0B0CFAF
:101B1000F093F206E093F1069ECFFD01DC01C0CF09
:101B200013821282D7CFB0E0A0E0E9E9FDE00C9487
:101B3000330C8C01009751F4CB010E946E0C8C0188
:101B4000C801CDB7DEB7E0E10C944F0CFC01E60F05
:101B5000F71F9C0122503109E217F30708F49DC0DA
:101B6000D901CD91DC911197C617D70798F0C530F0
:101B7000D10530F3CE0104978617970708F3C61BEB
:101B8000D70B2297C193D1936D937C93CF010E9481
:101B90000A0DD6CF5B01AC1ABD0A4C018C0E9D1EFE
:101BA000A091F106B091F206512C412CF12CE12CC0
:101BB000109731F58091EF069091F0068815990500
:101BC00009F05CC04616570608F058C08091000125
:101BD00090910101009741F48DB79EB740910401A7
:101BE00050910501841B950BE817F90708F055C0C3
:101BF000F093F006E093EF06F90171836083A0CFC4
:101C00008D919C91119712966C90129713967C90DF
:101C10001397A815B90559F56C0142E0C40ED11C03
:101C2000CA14DB0420F1AC014A195B09DA011296EF
:101C3000159780F06282738251834083D9016D933E
:101C40007C93E114F10471F0D7011396FC93EE93A9
:101C5000129776CF22968C0F9D1FF9019183808376
:101C6000F301EFCFF093F206E093F10669CF481647
:101C7000590608F42C017D01D3019ACFCB010E94B3
:101C80006E0C7C01009749F0AE01B8010E94500E25
:101C9000C8010E940A0D870153CF10E000E050CF29
:101CA000FB01DC0102C001900D9241505040D8F779
:101CB0000895FC018191861721F08823D9F799278F
:101CC00008953197CF010895FB01DC0101900D9239
:101CD0000020E1F70895FB01DC014150504048F03D
:101CE00001900D920020C9F701C01D924150504053
:101CF000E0F70895FB0151915523A9F0BF01DC01E4
:101D00004D9145174111E1F759F4CD0101900020A3
:101D100049F04D9140154111C9F3FB014111EFCF3D
:101D200081E090E001970895AEE0B0E0EAE9FEE0DE
:101D30000C943F0C0D891E898F89988D26E02C8389
:101D40001A83098397FF02C080E090E801979E8381
:101D50008D83AE01455E5F4F698D7A8DCE01019610
:101D60000E94C40E4D815E8157FD0AC02F813885C7
:101D7000421753070CF49A01020F131FF801108247
:101D80002E96E4E00C945B0CABE0B0E0EAECFEE0F5
:101D90000C94310C7C013B018A01FC0117821682F4
:101DA000838181FFC8C1CE0101965C01F701938157
:101DB000F30193FD859193FF81913F01882309F4FD
:101DC00053C1853239F493FD859193FF81913F0191
:101DD000853229F4B70190E00E94B410E7CF912C2E
:101DE000212C312CFFE1F31538F08B3211F190F4F6
:101DF000803209F1833229F137FC3CC020ED280FF5
:101E00002A3050F536FE20C08AE0989E200D11241D
:101E1000922E06C08D3291F0803371F7689430F8BD
:101E2000F30193FD859193FF81913F018111DACFF9
:101E300021C0689431F8689432F8F2CF689433F88E
:101E4000EFCF689434F8ECCFEAE02E9E200D1124F9
:101E5000222E689435F8E4CF8E3229F436FC04C182
:101E6000689436F8DDCF8C3619F4689437F8D8CFFB
:101E70008836B1F2982F9F7D95549330E0F08336E9
:101E8000A1F18337C1F1833509F063C02801F2E085
:101E90004F0E511CF801C080D180692D70E036FCD6
:101EA00002C06FEF7FEFC6010E949E104C01689444
:101EB00037F882010AC00C5F1F4FFFE3F9838824C3
:101EC0008394912C6501E89437F833FE2DC0522C91
:101ED0008114910471F5552009F468CFB70180E2AF
:101EE00090E00E94B4105A94F6CFF8018081898363
:101EF0000E5F1F4FE4CF2801F2E04F0E511CF80196
:101F0000C080D180692D70E036FC02C06FEF7FEF9A
:101F1000C6010E94A9104C018201D5CFB70180E211
:101F200090E00E94B4102A942814190409F0B0F724
:101F3000CECFF60137FC859137FE81916F01B70155
:101F400090E00E94B41051105A94F1E08F1A910859
:101F5000BFCF843619F0893609F077C0F80137FE13
:101F60006BC060817181828193810C5F1F4FF32D63
:101F7000FF763F2E97FF09C09095809570956195EB
:101F80007F4F8F4F9F4F689437F82AE030E0A501CC
:101F90000E94E410C82ECA188C2C432C36FE0CC0AC
:101FA000E89440F8C91440F434FE05C032FC03C084
:101FB000F32DFE7E4F2E892C44FE95C0FE01EC0DC4
:101FC000F11D8081803309F087C0242D297E422EA7
:101FD000842D8870582E43FC95C040FE8FC09C2CE9
:101FE000821418F42C0C922C981844FE91C0B7015E
:101FF00080E390E00E94B41042FE09C088E790E0C0
:1020000041FE02C088E590E0B7010E94B410C914F7
:1020100008F48AC0CA94D12C9FEFC91AD90ACA0CF5
:10202000DB1CF60182916F01B70190E00E94B410B1
:10203000AC14BD04B1F74FCF60817181072E000C45
:10204000880B990B0E5F1F4F92CFD32CE894D4F8D6
:102050002AE030E0853739F1232D297FD22E8F36C3
:1020600001F148F48835A9F0F701868197812B9614
:10207000E2E10C944D0C803749F08837A9F7D4FE83
:1020800002C06894D2F820E130E00DC06894D4F822
:10209000F6CF34FE03C0822F8660D82E20E132E0D6
:1020A00002C028E030E0F801D7FE0FC060817181E6
:1020B000828193810C5F1F4FA5010E94E410C82EFE
:1020C000CA183D2CE89437F867CF6081718190E0A1
:1020D00080E00E5F1F4FF0CF42FC02C0839478CFA8
:1020E0008394839475CF842D867809F471CFF6CFCD
:1020F000B70180E290E00E94B41083948214C0F390
:10210000512C73CF522C5818821408F46ECFF8CF8C
:10211000842D867809F47BCF8BE241FE80E247FC78
:102120008DE2B70190E071CFB70180E390E00E94AB
:10213000B4109A946CCF8FEF9FEF99CFFC0105906C
:10214000615070400110D8F7809590958E0F9F1FB9
:102150000895FC016150704001900110D8F78095FE
:1021600090958E0F9F1F08950F931F93CF93DF932A
:10217000182F092FEB018B8181FD09C01FEF0FEF95
:10218000812F902FDF91CF911F910F91089582FFA2
:1021900014C02E813F818C819D81281739073CF422
:1021A000E881F981CF0101969983888310838E811C
:1021B0009F8101969F838E83E3CFE885F985812FE8
:1021C0000995892BA1F3DACFFA01AA27283051F11A
:1021D000203181F1E8946F936E7F6E5F7F4F8F4F58
:1021E0009F4FAF4FB1E03ED0B4E03CD0670F781FB7
:1021F000891F9A1FA11D680F791F8A1F911DA11D9C
:102200006A0F711D811D911DA11D20D009F46894D4
:102210003F912AE0269F11243019305D3193DEF67C
:10222000CF010895462F4770405D4193B3E00FD032
:10223000C9F7F6CF462F4F70405D4A3318F0495D1D
:1022400031FD4052419302D0A9F7EACFB4E0A69500
:102250009795879577956795BA95C9F70097610522
:10226000710508959B01AC010A2E06945795479578
:1022700037952795BA95C9F7620F731F841F951F6D
:10228000A01D089510E0C2E6D0E004C0FE010E9447
:10229000680C2196C336D107C9F7F894FFCF000028
:1022A000F306800039303134303531383030313157
:1022B0003335300000000000000000000000000086
:1022C000000000000000000000000000000000000E
:1022D000000000000000393939390000000000001A
:1022E00000000000AE01FF002C01FB015D013B017D
:1022F0004F01000000003402FF00C70233029002C9
:10230000A6021B020D0A0041542B48545450494E5A
:1023100049540041542B48545450504152413D229D
:10232000434944222C310041542B485454504143DA
:1023300054494F4E3D300041542B4854545052455F
:1023400041443D302C3130300041542B48545450DE
:102350005445524D004552524F52004F4B0041548C
:102360002B43494D490041542B49443F0041542BD4
:102370004B45593F0041542B4B45593D0041542B8F
:1023800053454E44534D533D2B0041542B48545418
:1023900050504152413D2255524C222C22687474B7
:1023A000703A2F2F646C622E636F6D2E706C2F61EC
:1023B00070692F76312F74656C656D657472792E36
:1023C0007068703F49443D2573264B45593D257340
:1023D0002670686F6E653D257326736D733D25739A
:1023E00022004F4B203B2D29200042C582C485642A
:1023F0003A204E6965207A6E616C657A696F6E6FFE
:1024000020C59B7265646E696BC3B377210041542C
:102410002B53454E444D41494C3D0041542B4854AB
:102420005450504152413D2255524C222C22687446
:1024300074703A2F2F646C622E636F6D2E706C2F48
:102440006170692F76312F74656C656D6574727972
:102450002E7068703F49443D2573264B45593D25F4
:1024600073266D61696C3D2573266D61696C5F74BF
:1024700069746C653D2573266D6573736167653D91
:102480002573220041542B44454255470041542BAB
:10249000444941473F000A3D3D3D204E4554574F7A
:1024A000524B20444941474E4F534953203D3D3DF7
:1024B00000312E205369676E616C202843535129E7
:1024C0003A200041542B43535100322E204E657464
:1024D000776F726B20726567202843524547293A0F
:1024E000200041542B435245473F00332E204F706C
:1024F000657261746F722028434F5053293A20004F
:1025000041542B434F50533F00342E2047505253D9
:102510002061747461636820284347415454293A08
:10252000200041542B43474154543F00352E20494D
:102530005020616464726573732028434946535286
:10254000293A200041542B53415042523D322C3104
:10255000003D3D3D20454E4420444941474E4F53A8
:102560004953203D3D3D0A0073656E736F722E6EB8
:102570006574000A53544152540A0041542B434697
:10258000554E3D312C31003D3D3D20496E69636A19
:10259000616C697A61636A612053414C47534D769F
:1025A00031203D3D3D0041542B43474154543D3182
:1025B0000041542B435354543D22696E7465726E2E
:1025C0006574220041542B53415042523D332C310B
:1025D0002C22434F4E54595045222C2247505253DF
:1025E000220041542B53415042523D332C312C2276
:1025F00041504E222C222573220041542B5341502E
:0826000042523D312C31000073
:107E0000112484B714BE81FFF0D085E080938100F7
:107E100082E08093C00088E18093C10086E0809377
:107E2000C20080E18093C4008EE0C9D0259A86E02C
:107E300020E33CEF91E0309385002093840096BBD3
:107E4000B09BFECF1D9AA8958150A9F7CC24DD24C4
:107E500088248394B5E0AB2EA1E19A2EF3E0BF2EE7
:107E6000A2D0813461F49FD0082FAFD0023811F036
:107E7000013811F484E001C083E08DD089C08234E0
:107E800011F484E103C0853419F485E0A6D080C0E4
:107E9000853579F488D0E82EFF2485D0082F10E0AE
:107EA000102F00270E291F29000F111F8ED06801E7
:107EB0006FC0863521F484E090D080E0DECF843638
:107EC00009F040C070D06FD0082F6DD080E0C81688
:107ED00080E7D80618F4F601B7BEE895C0E0D1E017
:107EE00062D089930C17E1F7F0E0CF16F0E7DF06D8
:107EF00018F0F601B7BEE89568D007B600FCFDCFD4
:107F0000A601A0E0B1E02C9130E011968C91119780
:107F100090E0982F8827822B932B1296FA010C0160
:107F200087BEE89511244E5F5F4FF1E0A038BF0790
:107F300051F7F601A7BEE89507B600FCFDCF97BE46
:107F4000E89526C08437B1F42ED02DD0F82E2BD052
:107F50003CD0F601EF2C8F010F5F1F4F84911BD097
:107F6000EA94F801C1F70894C11CD11CFA94CF0C13
:107F7000D11C0EC0853739F428D08EE10CD085E9AC
:107F80000AD08FE07ACF813511F488E018D01DD067
:107F900080E101D065CF982F8091C00085FFFCCF94
:107FA0009093C60008958091C00087FFFCCF809118
:107FB000C00084FD01C0A8958091C6000895E0E648
:107FC000F0E098E1908380830895EDDF803219F02E
:107FD00088E0F5DFFFCF84E1DECF1F93182FE3DFCA
:107FE0001150E9F7F2DF1F91089580E0E8DFEE27F6
:047FF000FF270994CA
:027FFE00040479
:00000001FF
